:020000040800F2
:1000000000000320D9160008491600084B16000806
:100010004D1600084F160008511600080000000099
:10002000000000000000000000000000531600085F
:100030005516000800000000571600085916000861
:100040002917000829170008291700082917000890
:100050002917000829170008291700082917000880
:100060002917000829170008291700082917000870
:100070002917000829170008291700082917000860
:100080002917000829170008291700082917000850
:100090002917000829170008291700082917000840
:1000A0002917000829170008291700082917000830
:1000B0002917000829170008291700082917000820
:1000C0002917000829170008291700082917000810
:1000D0002917000829170008291700082917000800
:1000E00029170008291700082917000829170008F0
:1000F00029170008291700082917000829170008E0
:1001000029170008291700082917000829170008CF
:1001100029170008291700085D160008291700088C
:10012000291700086D16000829170008291700086C
:10013000291700082917000829170008291700089F
:10014000291700082917000829170008291700088F
:10015000291700082917000829170008291700087F
:10016000291700082917000829170008291700086F
:10017000291700087D160008291700080000000054
:10018000291700082917000829170008291700084F
:10019000291700082917000829170008291700083F
:0C01A0002917000829170008291700087B
:1001AC000348044B834202D0034B03B118477047FA
:1001BC007008002070080020000000000548064967
:1001CC000B1AD90F01EBA301491002D0034B03B159
:1001DC0018477047700800207008002000000000CD
:1001EC0010B5064C237843B9FFF7DAFF044B13B173
:1001FC000448AFF300800123237010BD7008002069
:10020C0000000000F096000808B5044B1BB104492F
:10021C000448AFF30080BDE80840CFE700000000C1
:10022C0074080020F096000853B94AB9002908BF99
:10023C0000281CBF4FF0FF314FF0FF3000F06CB9BD
:10024C00ADF1080C6DE904CE00F006F8DDF804E021
:10025C00DDE9022304B070472DE9F047089E0D46F6
:10026C0004468E46002B40F082808A42174646D9BF
:10027C00B2FA82F24AB1C2F1200105FA02F320FA75
:10028C0001F1974041EA030E94404FEA1748230CC2
:10029C00BEFBF8FCB9B208FB1CEE43EA0E430CFBA8
:1002AC0001F098420AD9FB180CF1FF3580F0168149
:1002BC00984240F21381ACF1020C3B441B1AA4B2DD
:1002CC00B3FBF8F008FB103344EA034400FB01F1E4
:1002DC00A14209D93C1900F1FF3380F00181A14200
:1002EC0040F2FE8002383C44641A40EA0C40002183
:1002FC001EB1D4400023C6E90043BDE8F08702B923
:10030C00FFDEB2FA82F2002A4FD1CB1B4FEA174E16
:10031C001FFA87F80121B3FBFEFC250C0EFB1C33E6
:10032C0045EA034508FB0CF3AB4207D97D190CF1E8
:10033C00FF3002D2AB4200F2E7808446ED1AA3B242
:10034C00B5FBFEF00EFB105543EA054408FB00F824
:10035C00A04507D93C1900F1FF3302D2A04500F2A9
:10036C00D7801846A4EB080440EA0C40C0E78B4247
:10037C0008D9002E00F0AF800021C6E90005084620
:10038C00BDE8F087B3FA83F100294BD1AB4202D31D
:10039C00824200F2B780841A65EB030301209E466B
:1003AC00002EAAD0C6E9004EA7E7C2F1200C01FA34
:1003BC0002F3974020FA0CF04FEA174E21FA0CFC8E
:1003CC001843BCFBFEF1050C0EFB11CC1FFA87F891
:1003DC0045EA0C4501FB08F3AB4204FA02F409D9D7
:1003EC007D1901F1FF3C80F08B80AB4240F288809C
:1003FC0002393D44EB1A85B2B3FBFEF00EFB103311
:10040C0045EA034500FB08F3AB4207D97D1900F11F
:10041C00FF3C71D2AB426FD902383D44EB1A40EA33
:10042C00014178E7C1F1200C8B4022FA0CF71F43F5
:10043C0020FA0CF405FA01F34FEA174E25FA0CF5E5
:10044C001C43230CB5FBFEF91FFA87F80EFB19555C
:10045C0043EA054509FB08FAAA4502FA01F200FA3B
:10046C0001F308D97D1909F1FF3047D2AA4545D9C6
:10047C00A9F102093D44A5EB0A05A4B2B5FBFEF0B7
:10048C000EFB105544EA054400FB08F8A04507D9BB
:10049C003C1900F1FF352DD2A0452BD902383C4434
:1004AC0040EA0940A4EB0804A0FB02894C45C6466F
:1004BC004D4619D316D05EB1B3EB0E0264EB0504B6
:1004CC0004FA0CFCCA404CEA0202CC40C6E90024F7
:1004DC000021BDE8F087314630460EE7AC46EDE62C
:1004EC00184601E74345E6D2B8EB020E69EB070567
:1004FC000138E0E72846D3E760468FE78146BAE744
:10050C00614677E708464BE7ACF1020C3D4415E732
:10051C0002383C4426E700BF704700BF0023014669
:10052C001A46184600F06CBB014B1868704700BFA8
:10053C000000002038B50A4C0A4D641BA4100AD0E8
:10054C0004F18043013B05EB8305013C55F804396C
:10055C009847002CF9D1BDE8384009F0C9B800BF64
:10056C00C41B0108C01B010870B50D4E0D4D761B48
:10057C00B61006D00024013455F8043B9847A64227
:10058C00F9D1094E094D761B09F0ACF8B61006D01E
:10059C000024013455F8043B9847A642F9D170BDAC
:1005AC00B81B0108B81B0108C01B0108B81B0108C7
:1005BC00024B0146186800F00BB800BF0000002089
:1005CC00024B0146186800F09FBB00BF00000020E2
:1005DC002DE9F04F01F10B05162D83B0064623D8FB
:1005EC00102900F2B98000F0F5FA1025182302202A
:1005FC00CD4F3B44A3F108025C68944200F0B980F3
:10060C00636823F003032344D4E902515A68E96078
:10061C0042F0010230468D605A6000F0DDFA083479
:10062C00204603B0BDE8F08F35F0070500F194804B
:10063C00A94200F2918000F0CDFAB5F5FC7FC0F034
:10064C009D816B0A00F08F80042B00F27381AB0943
:10065C0003F1390003F1380CC300B34F3B44A3F151
:10066C0008015C68A14206D10CE0002A80F22B81C3
:10067C00E468A14206D0636823F003035A1B0F2AD7
:10068C00F3DD60463C69DFF8A4C264457CD0636846
:10069C0023F003035A1B0F2A00F37E81002AC7E9BB
:1006AC0004CC80F26F81B3F5007F80F01A81DB08F7
:1006BC00591C7A6857F83180C4F808804FF0010E45
:1006CC009B100EFA03F307EBC10E1343AEF10802B5
:1006DC00E2607B6047F83140C8F80C40821001247E
:1006EC0094409C4256D81C4206D120F00300640072
:1006FC001C4200F10400FAD007EBC009CE4680463C
:10070C00DEF80C309E4507D120E1002A80F22781CB
:10071C00DB689E4500F01A81596821F003014A1BE1
:10072C000F2AF2DDD3E9028E5C1945F001055D60FC
:10073C0042F00105C8F80CE03046CEF80880C7E955
:10074C000444C4E902CC65605A50009300F044FAAA
:10075C00009B03F1080402E00C23336000242046C4
:10076C0003B0BDE8F08F4FF4007340204FF03F0C06
:10077C0073E7DC68A34208BF02307FF441AF3C69E9
:10078C00DFF8A8C1644582D17B68821001249440B3
:10079C009C42A8D9BC68636823F00308A84503D31E
:1007AC00A8EB05030F2B7EDCDFF88491D7F8082427
:1007BC00D9F80030013204EB080A2B4400F03781E1
:1007CC0003F580530F3323F47F6B2BF00F0B59463B
:1007DC00304600F003FA411C024600F0F7808245D7
:1007EC0000F2F280D9F804105944C9F804100B46F1
:1007FC0000F05381D7F8081401311BBFA2EB0A0A91
:10080C005344C7F80824C9F8043012F0070300F069
:10081C001A81C3F108010A44C3F58051934408318D
:10082C00A1EB0B01C1F30B0A514630460193009228
:10083C0000F0D4F9421CDDE9002300F05381831A47
:10084C0003EB0A0BD9F80410BA604BF001035144C6
:10085C00BC425360C9F8041000F02B81B8F10F0FA3
:10086C0040F229816368A8F10C0020F0070003F026
:10087C00010304EB000C03434FF0050E0F286360DB
:10088C00CCE901EE00F2358153681446D9F82C20DE
:10089C008A42D9F8302038BFC9F82C108A4238BFA8
:1008AC00C9F8301094E0621943F0010345F00105DA
:1008BC0065603046BA60536000F08EF9083420460B
:1008CC0003B0BDE8F08F2344E1685A68A56842F094
:1008DC000102E96030468D605A6000F07DF9083401
:1008EC003DE75A0A042A69D9142A00F2BE8002F1A3
:1008FC005C01C9005B3207EB010E7958AEF1080EB2
:10090C008E4500F097804A6822F003029A4202D981
:10091C0089688E45F7D1D1F80CE07B68C4E9021EDA
:10092C00CEF80840CC60D9E6300400203804002012
:10093C008C080020142B59D9542B00F29E802B0BC1
:10094C0003F16F0003F16E0CC30086E608F1010899
:10095C0018F0030F0EF1080E7FF4D2AE51E01944DB
:10096C001C464A68DB6854F8085F42F001024A6092
:10097C003046EB609D6000F02FF9F0E6E80805F1D9
:10098C00080335E6234430465A6842F001025A60A7
:10099C00083400F021F9E2E6611945F0010E42F04D
:1009AC000105C4F804E03046C7E90411C1E902CCE2
:1009BC004D60E25000F010F90834D0E69A0902F1CB
:1009CC003901C900383296E7BC4260D0BC68636814
:1009DC0023F0030BAB45ABEB050302D30F2B3FF717
:1009EC0062AF304600F0F8F80024B8E603F15C0082
:1009FC0003F15B0CC30030E659F808394B4540F065
:100A0C00968010F0030F00F1FF30F5D17B6823EADC
:100A1C0004037B6064009C423FF6BCAE1CB9B9E693
:100A2C00640008F104081C42FAD0404664E603F165
:100A3C00100BCCE67B6892104FF0010808FA02F21A
:100A4C0013437B606AE702EB0B014942C1F30B0ACB
:100A5C00514630460193009200F0C0F8431CDDE98A
:100A6C0000237FF4ECAE9A46ECE6542A26D81A0BF7
:100A7C0002F16F01C9006E323DE7B3F5AA7F26D8AB
:100A8C00EB0B03F1780003F1770CC300E5E5D9F823
:100A9C0004305B44C9F80430ACE6CAF30B00002800
:100AAC007FF4A8AE08EB0B03BC6843F00103636052
:100ABC00ECE61446EAE60123536092E7B2F5AA7F0E
:100ACC0021D8DA0B02F17801C900773213E740F232
:100ADC005452934221D8AB0C03F17D0003F17C0CF2
:100AEC00C300BAE5083B9B44ABEB020B4FF0000A8A
:100AFC00A8E604F10801304600F006F9BC68D9F804
:100B0C0004106368C2E640F254518A420BD89A0C26
:100B1C0002F17D01C9007C32EDE64FF47E737F203B
:100B2C004FF07E0C99E54FF47E717E22E3E67B68F4
:100B3C0070E700BFF0B4860746D0541E002A3CD0A4
:100B4C00CAB2034602E014F1FF3436D303F8012B8A
:100B5C009D07F8D1032C29D9CDB245EA05250F2CD8
:100B6C0045EA054533D9A4F11006360903F12007EF
:100B7C0007EB061703F1100242E9045542E902554E
:100B8C001032BA42F8D1721C14F00C0F03EB0212A3
:100B9C0004F00F0613D0331F23F003030433134464
:100BAC0042F8045B9342FBD106F003042CB1C9B2AA
:100BBC001C4403F8011B9C42FBD1F0BC704734462B
:100BCC001346002CF3D1F8E714460346C2E71A4645
:100BDC002646E0E7704700BF704700BF38B5074CAA
:100BEC00002305460846236000F04AFD431C00D054
:100BFC0038BD2368002BFBD02B6038BDE8380020B3
:100C0C00F0B4184C2568D5F8484114B365681F2D0D
:100C1C0024DC38B9AB1C0135656044F82310002086
:100C2C00F0BC704704EB85060127C6F8882007FA4C
:100C3C0005F2D4F88871022847EA0207C4F88871D3
:100C4C00C6F80831E6D1D4F88C311A43C4F88C219B
:100C5C00E0E705F5A674C5F84841D7E74FF0FF303B
:100C6C00DEE700BF08970008F8B5244F0C4606468F
:100C7C00FFF7B0FFBB685D68C4F57E610F3125F0EE
:100C8C000305294421F47F6121F00F01A1F5805463
:100C9C00B4F5805F07DB00213046FFF79FFFBB6890
:100CAC002B44984204D03046FFF796FF0020F8BD45
:100CBC0061423046FFF792FF01300DD0104BBA68FD
:100CCC0019682D1B45F001053046091B556019604C
:100CDC00FFF782FF0120F8BD00213046FFF77EFFB1
:100CEC00BA68831A0F2BDEDD064C0549246843F0E5
:100CFC000103001B53600860D5E700BF30040020DF
:100D0C00900800203808002000295ED0F8B50F4666
:100D1C000646FFF75FFF57F804CC754D2CF0010326
:100D2C00A7F10800C218A9685468914224F0030482
:100D3C0000F084801CF0010F546002EB040133D1ED
:100D4C0057F808EC4968A0EB0E0005F1080C876811
:100D5C006745734401F0010160D0D0F80CE0C7F88E
:100D6C000CE0CEF80870002900F08D8043F00101F2
:100D7C0041601360B3F5007F30D2DB08591C6C68FE
:100D8C009A1001239340234305EBC10255F83140DF
:100D9C006B60083AC0E9024245F83100E060304629
:100DAC00BDE8F840FFF718BF4968C9070ED42344C3
:100DBC0005F1080C9168614543F001046BD0D268D1
:100DCC00CA6091604460C350D4E7704743F001019E
:100DDC00B3F5007F47F8041C1360CED35A0A042ADB
:100DEC0046D89A0902F13907FF0002F13801EC19D3
:100DFC00EA59083C944255D0516821F003019942BC
:100E0C0002D992689442F7D1D468C0E90224A06058
:100E1C00D0603046BDE8F840FFF7DEBE002962D155
:100E2C00D2E90221234443F00104D1608A6044607A
:100E3C00C3503046BDE8F840FFF7CEBE1CF0010FA2
:100E4C00234407D157F8082C801A1344D0E9021216
:100E5C00CA609160274A126843F001019A424160CE
:100E6C00A8609CD8244B30461968FFF7FDFE96E726
:100E7C00142A0AD9542A1DD81A0B02F16F07FF0045
:100E8C0002F16E01B3E7234494E702F15C07FF0023
:100E9C0002F15B01ABE7C5E90400C0E902CC446098
:100EAC00C3507CE76B688910012707FA01F11943DD
:100EBC006960AAE7B2F5AA7F06D8DA0B02F17807C7
:100ECC00FF0002F1770192E740F254518A4206D8B2
:100EDC009A0C02F17D07FF0002F17C0187E74FF4C9
:100EEC007E777E2183E743F001014160136056E772
:100EFC00300400203C0800208C080020F0B58DB098
:100F0C0000240794089409940A940B940194344B8C
:100F1C001A6B42F010021A631A6B02F01002019263
:100F2C00019A02941A6B42F080021A631A6B02F057
:100F3C0080020292029A03941A6B42F001021A6325
:100F4C001A6B02F001020392039A04941A6B42F09A
:100F5C0004021A631A6B02F004020492049A0594B8
:100F6C001A6B42F002021A631A6B02F0020205922B
:100F7C00059A06941A6B42F040021A631B6B03F03D
:100F8C0040030693069B174F22461021384600F06B
:100F9C0062FF154E22464FF4C041304600F05BFF15
:100FAC00012507954FF490130893099407A90F484E
:100FBC0000F052FE10230793089509940A9407A990
:100FCC00384600F049FE4FF4C04307930895099446
:100FDC000A9407A9304600F03FFE0DB0F0BD00BFEB
:100FEC000038024000080240001802400000024095
:100FFC0000B583B000210191094B1A6B42F48002B9
:10100C001A631B6B03F480030193019B0A4639207E
:10101C0000F0D8FB392000F009FC03B05DF804FBAC
:10102C00003802400023024A1370024A13707047C2
:10103C0040080020740C0020034B00221A70034B54
:10104C0001221A70704700BF40080020740C002069
:10105C002DE9F04707468A469046BDF820502D09E9
:10106C00B3FBF5F900261CE006FB054338F813101A
:10107C00384608F0FAFA0134A542F5D81021384662
:10108C0008F0FEFAA0F54D70B0F5004F04DA10F53B
:10109C00004F03DC064801E047F6FF702AF8160003
:1010AC0001364E4501D20024E6E74846BDE8F087FC
:1010BC000180FFFF08B50268034B9A4200D008BDBF
:1010CC0000F048FBFBE700BF0010004072B6FEE7E3
:1010DC0008B51448144B036000234363012242609B
:1010EC0080218163C3630264836003614361836114
:1010FC00C3614FF4FA4202624022426420228264AD
:10110C004FF48032C264036543658365C365042371
:10111C0003664FF6FF73436602F076F900B908BD1B
:10112C00FFF7D4FF600B00200458014008B50A48B3
:10113C000A4B03604FF4E133436000238360C360C8
:10114C0003610C2242618361C36102F067FE00B946
:10115C0008BDFFF7BBFF00BF300C002000100140A2
:10116C0000B587B000230293039304930593009377
:10117C0001931348134A0260436083604FF6FF7279
:10118C00C26003614361836102F0BEFC90B94FF40D
:10119C008053029302A90A4802F0EDFC60B90023C7
:1011AC00009301936946064802F064FD30B907B01C
:1011BC005DF804FBFFF78AFFFFF788FFFFF786FF58
:1011CC00E80B00200000014000B595B03022002152
:1011DC0008A8FFF7AFFC0023039304930593069331
:1011EC000793254AD2F88C1021F44011C2F88C10C8
:1011FC000193116C41F080511164126C02F0805219
:10120C000192019A02931D4A136823F4404343F45C
:10121C0080431360136803F440430293029B012341
:10122C0008934FF48033099302230E934FF48002FA
:10123C000F92052210925A221192129303231393A8
:10124C0008A801F00BFC90B90F2303930221049121
:10125C00002305934FF4A05306934FF48053079348
:10126C0003A801F05DFE20B915B05DF804FBFFF793
:10127C002DFFFFF72BFF00BF00380240007000402D
:10128C002DE9F04F8DB0002304E0584A002122F8DC
:10129C0013100133FF2BF8D9002304E0544A00212A
:1012AC0022F8131001331F2BF8D900F039FAFFF78D
:1012BC008BFFFFF723FEFFF79BFEFFF709FFFFF7FE
:1012CC0035FF03F0E1F907F09DFFFFF749FF03A895
:1012DC0008F0C0F94FF480724449464802F058F9BE
:1012EC004FF000080026002744460DE0012142483B
:1012FC0000F0AAFD054601283ED0404B1B78002B80
:10130C004CD0B8F1000F5ADC07F09CFF3C4B1B781B
:10131C00022BF9D1002CE9D0012CF5D1374B1D78DB
:10132C00002DF1D1374B1978DFF8C4B003230193AA
:10133C004023009380232D4A02EB0122594603A837
:10134C00FFF786FE81464FF0010A2C4B83F800A074
:10135C000146584608F02AF916EB090647F1000732
:10136C005146254800F070FD50452ED0B8F1000FC5
:10137C00CADD08F1FF38C7E7B8F1000FBDD14FF453
:10138C00FA41214808F0D2F801224FF400511F48CD
:10139C0000F061FD2C464FF47A78AEE7194B1978C2
:1013AC0001250195402300938023104A02EB012272
:1013BC000F4903A8FFF74CFE104B1D70A1E708F175
:1013CC00FF38012000F0D8F99EE7B8F1000FCDD11D
:1013DC0031460D4808F0FAF800224FF400510B4842
:1013EC0000F039FD2C4640F6C418C2E70009002075
:1013FC00C0080020600B00200000024040080020C4
:10140C00FC310020740C00200C97000800180240DE
:10141C0082B0002100910B4B5A6C42F480425A640A
:10142C005A6C02F480420092009A01911A6C42F0BC
:10143C0080521A641B6C03F080530193019B02B021
:10144C00704700BF003802400268094B9A4200D036
:10145C00704782B000230193064B5A6C42F0010294
:10146C005A645B6C03F001030193019B02B070475B
:10147C00000001400038024000B589B000230393FE
:10148C000493059306930793026803F1804303F5D5
:10149C0088339A4202D009B05DF804FB0022019215
:1014AC0003F59433596C41F010015964596C01F0F7
:1014BC001001019101990292196B41F0010119631C
:1014CC001B6B03F001030293029B4FF4C063039365
:1014DC00022304930592032306930723079303A97E
:1014EC00014800F0B9FBD6E70000024030B593B0DC
:1014FC0004463022002101A8FFF71CFB22682A4B6E
:10150C009A4201D013B030BD042301934FF4807381
:10151C000593052306930123099301A801F0F4FD1B
:10152C0000283AD1214B1B685BB900220092204A5B
:10153C00516C41F480015164526C02F480020092AF
:10154C00009A0133194A136070230D9302230E93F2
:10155C0000250F951095062311930DA9154800F041
:10156C007BFB1548154B036045608560C5604FF4E7
:10157C00806303614FF4006343614FF40053836154
:10158C004FF48073C3610562456200F0DBF938B932
:10159C00094B63679C632367B4E7FFF797FDC1E7CB
:1015AC00FFF794FDF4E700BF04580140780C0020CD
:1015BC000038024000100240000B0020286402405A
:1015CC0010B588B001460022362000F0FBF836201A
:1015DC0000F02CF900240194144B1A6C42F0100208
:1015EC001A641B6C03F010030193019B02A903A85E
:1015FC0001F06CFD01F04AFD43000D48A0FB0323F4
:10160C009B0C013B0B480C4A026040F2E732C26073
:10161C0043600461846002F077FA10B1012008B0D5
:10162C0010BD044802F006F9F9E700BF003802408B
:10163C0083DE1B437C0C002000100040FEE7FEE71D
:10164C00FEE7FEE7FEE77047704770477047000003
:10165C0008B5024802F036F908BD00BF7C0C00202A
:10166C0008B5024800F00AFA08BD00BF000B0020C4
:10167C0008B5024801F006F908BD00BFD8350020B6
:10168C0010B503460C4A0D490D48006840B10C4892
:10169C0000680344521A934206D8094A136010BDDD
:1016AC000748084C0460F2E7FEF73EFF0C2303608A
:1016BC004FF0FF30F3E700BF0000032000040000F0
:1016CC00C40C0020F038002070470000DFF834D044
:1016DC000D480E490E4A002302E0D458C45004337E
:1016EC00C4188C42F9D30B4A0B4C002301E0136055
:1016FC000432A242FBD3FFF7E7FFFEF735FFFFF7FB
:10170C00BFFD70470000032000000020700800207F
:10171C00C41B010870080020EC380020FEE7000014
:10172C0008B50B4B1A6842F400721A601A6842F43E
:10173C0080621A601A6842F480721A60032000F00A
:10174C002FF80F20FFF73CFFFFF762FE002008BDCB
:10175C00003C0240034A1168034B1B780B44136096
:10176C00704700BFC80C002048080020014B1868C7
:10177C00704700BFC80C002038B50446FFF7F6FFD1
:10178C000546B4F1FF3F02D0044B1B781C44FFF715
:10179C00EDFF401BA042FAD338BD00BF4808002023
:1017AC00074AD36823F4E0631B041B0C000200F40B
:1017BC00E060034343F0BF6343F40033D3607047EE
:1017CC0000ED00E030B4174BDB68C3F30223C3F128
:1017DC000704042C28BF04241D1D062D18D9033B17
:1017EC004FF0FF3505FA04F421EA0401994005FA9B
:1017FC0003F322EA0303194300280BDB0901C9B2E6
:10180C0000F1604000F5614080F8001330BC704777
:10181C000023E5E700F00F000901C9B2024B19548F
:10182C00F4E700BF00ED00E014ED00E0002807DB5A
:10183C0000F01F02400901239340024A42F8203075
:10184C00704700BF00E100E030B405682C6824F458
:10185C0080242C60046863608368402B05D0036887
:10186C0099600368DA6030BC704703689A6003685B
:10187C00D960F8E710B40368D9B210390B4AA2FB4F
:10188C00014212090A4CA25CC2655F2908D923F4F3
:10189C007F7323F0030304338365806D10BC7047A2
:1018AC0023F47F7323F003038365F6E7ABAAAAAA9C
:1018BC0030970008836A826992B9012B0AD0022BF7
:1018CC0002D00BB100207047C36A13F0807F28D17F
:1018DC0000207047C36AB3F1C07F24D0002070474A
:1018EC00B2F5005F09D0022B25D9032B25D1C36A91
:1018FC0013F0807F23D100207047032B03D8DFE83F
:10190C0003F01404140A00207047C36A13F0807F9C
:10191C000DD100207047C36AB3F1C07F09D00020FD
:10192C00704701207047012070470120704701204B
:10193C00704701207047012070470020704701203C
:10194C007047000070B50446FFF710FF002C5BD009
:10195C000546022384F83530002384F8343022689D
:10196C00136823F00103136023681A6812F0010F47
:10197C000AD0FFF7FBFE431B052BF5D9202363652B
:10198C00032084F8350070BD1A6820481040616847
:10199C00A2680A43E1680A4321690A4361690A4360
:1019AC00A1690A43E1690A43216A0A430243616A55
:1019BC0004291ED01A602668756925F00705636A2C
:1019CC001D43042B07D1A36A1D43E36A1BB12046B8
:1019DC00FFF770FF90B975612046FFF74BFFE26D82
:1019EC003F239340836000206065012384F83530E9
:1019FC00C9E7E16A206B01430A43DBE740236365D7
:101A0C00012084F83500BEE70120BCE73F8010F0D0
:101A1C0038B50446856D90F8340001282BD0012090
:101A2C0084F8340094F83500C0B2012804D00023A7
:101A3C0084F83430022038BD022084F835000020B0
:101A4C0060652046FFF700FFE26D3F239340AB60DB
:101A5C002268136843F016031360236C23B12268C9
:101A6C00136843F0080313602268136843F0010302
:101A7C0013600020DFE70220DDE70000F0B583B043
:101A8C00044600230193724B1D68724BA3FB053572
:101A9C00AD0A876D3E68C26D08239340334210D067
:101AAC0003681A6812F0040F0BD01A6822F00402B3
:101ABC001A60C26D08239340BB60436D43F0010371
:101ACC004365E26D01239340334209D02268526989
:101ADC0012F0800F04D0BB60636D43F002036365AA
:101AEC00E26D04239340334209D02268126812F04D
:101AFC00020F04D0BB60636D43F004036365E26DB9
:101B0C0010239340334224D02268126812F0080F3D
:101B1C001FD0BB6023681A6812F4802F0DD01B688D
:101B2C0013F4002F04D1236C9BB12046984710E08E
:101B3C00A36C73B1204698470BE01A6812F4807FAF
:101B4C0003D11A6822F008021A60236C0BB12046EC
:101B5C009847E26D20239340334255D02268126897
:101B6C0012F0100F50D0BB6094F83530DBB2052B5F
:101B7C000ED023681A6812F4802F33D01B6813F42C
:101B8C00002F2AD1636C002B3ED0204698473BE0B7
:101B9C002268136823F0160313602268536923F03C
:101BAC0080035361236CA3B12268136823F00803EC
:101BBC001360E26D3F239340BB60012384F8353002
:101BCC00002384F83430236D002B3FD020469847F7
:101BDC003CE0A36C002BE7D1EBE7E36BA3B1204611
:101BEC00984711E01A6812F4807F09D11A6822F024
:101BFC0010021A60012384F83530002384F8343045
:101C0C00E36B0BB120469847636DFBB1636D13F02A
:101C1C00010F17D0052384F835302268136823F0A0
:101C2C0001031360019B01330193AB4204D8236879
:101C3C001B6813F0010FF5D1012384F83530002314
:101C4C0084F83430E36C0BB12046984703B0F0BDF8
:101C5C0044080020B5814E1B00230F2B00F2EA80B4
:101C6C00F0B482B05EE086685F000324BC4026EAD4
:101C7C000406CC68BC4034438460466826EA0206FD
:101C8C004C68C4F300129A403243426058E0DC08BE
:101C9C00083450F8247003F0070296000F22B2406B
:101CAC0027EA02070A69B2403A4340F824205BE075
:101CBC00092200E00022B2403A4302345E4E46F85C
:101CCC0024205E4A1468EA4324EA05064F6817F498
:101CDC00803F01D045EA0406584C2660646802EA4D
:101CEC0004064F6817F4003F01D045EA0406534C34
:101CFC006660A46802EA04064F6817F4801F01D0DE
:101D0C0045EA04064D4CA660E46822404E6816F481
:101D1C00001F01D045EA0402484CE26001330F2B4E
:101D2C0000F2858001229A400C6804EA020532EA2E
:101D3C000404F3D14C6804F00304013C012C92D947
:101D4C004A6802F00302032A09D0C4685E00032229
:101D5C00B24024EA02048A68B2402243C2604A6854
:101D6C0002F00302022A92D004685E000322B24001
:101D7C0024EA02044A6802F00302B24022430260E1
:101D8C004A6812F4403FC9D0002201922C4A546C8C
:101D9C0044F480445464526C02F480420192019ADF
:101DAC009C08A61C244A52F8267003F003029600E5
:101DBC000F22B24027EA0207224A90423FF47AAF40
:101DCC0002F58062904222D002F58062904220D0CF
:101DDC0002F5806290421ED002F5806290421CD0C7
:101DEC0002F5806290421AD002F58062904218D0BF
:101DFC0002F58062904216D002F58062904214D0B7
:101E0C0002F5806290423FF453AF0A2253E701225D
:101E1C0051E702224FE703224DE704224BE705224C
:101E2C0049E7062247E7072245E7082243E702B0C5
:101E3C00F0BC7047704700BF00380140003C0140C7
:101E4C0000380240000002400369194201D0012011
:101E5C007047002070470AB18161704709048161A5
:101E6C007047F8B50668346A04F00F07C4F34343AF
:101E7C00C4F30A14022B00D0F8BD0546002CFBD08D
:101E8C002C2303FB0703596C0029F5D02C2303FBEF
:101E9C0007031A6D2244DB6C9A4206D92C2000FBF6
:101EAC000755042385F86030E6E72246304602F0F9
:101EBC009FF82C2303FB07535A6C22445A641A6D67
:101ECC0022441A6506EB4716D6F81025C2F3C94210
:101EDC00B3F84030A342CFD1002ACDD0D6F800358C
:101EEC0023F0804343F00043C6F800352C2303FB5A
:101EFC00075595F8543083F0010385F85430BBE74F
:101F0C00F0B585B004469DF828509DF82C60BDF8BE
:101F1C00307090F8F802012837D0012084F8F802CC
:101F2C002C2000FB01404FF0000C80F83DC080F8E5
:101F3C003830A0F8407080F8391080F83F6002F01B
:101F4C007F0C80F83AC012F0800F16D12C2000FBC9
:101F5C0001404FF0000C80F83BC02C2000FB0140EE
:101F6C0080F83C50029701960095206802F089F9A0
:101F7C00002384F8F83205B0F0BD2C2000FB0140A2
:101F8C004FF0010C80F83BC0E7E70220F3E790F834
:101F9C00F832012B0BD010B50446012380F8F8322F
:101FAC00006802F002FA002084F8F80210BD02204A
:101FBC007047002845D0F0B58BB00646046890F801
:101FCC00F932002B38D0032386F8F932E36B13F483
:101FDC00807F01D100233361306801F0C0FF3446AB
:101FEC0054F810CB6D460FCC0FC50FCC0FC594E831
:101FFC00030085E80300371D97E80E00604601F0EA
:10200C0063FF0121306802F021F8344654F810CBFC
:10201C006D460FCC0FC50FCC0FC594E8030085E8B7
:10202C00030097E80E00604602F042F8012386F8A0
:10203C00F93200200BB0F0BD80F8F83207F00AF945
:10204C00C1E701207047F8B59DF81850BDF8206025
:10205C002C2404FB010484F83B2084F83F307DB928
:10206C002C2404FB0104032784F842709DF824708F
:10207C0084F83D70032B7FD8DFE803F009782850F3
:10208C002C2404FB0104022784F84270F2E7012D92
:10209C0072D1002A70D12EB92C2303FB010301222B
:1020AC0083F855202C2303FB010393F8553033B9E7
:1020BC002C2303FB0103002283F842205CE02C2339
:1020CC0003FB0103022283F8422055E092B92C2332
:1020DC0003FB010393F855302BB92C2303FB0103AD
:1020EC0083F8422048E02C2303FB0103022283F8EF
:1020FC00422041E02C2303FB010393F8543033B905
:10210C002C2303FB0103002283F8422034E02C2310
:10211C0003FB0103022283F842202DE092B92C2309
:10212C0003FB010393F855302BB92C2303FB01035C
:10213C0083F8422020E02C2303FB0103022283F8C6
:10214C00422019E02C2303FB010393F8543033B9DC
:10215C002C2303FB0103002283F842200CE02C23E8
:10216C0003FB0103022283F8422005E02C2303FB2E
:10217C000103002283F842202C2303FB01F3C21835
:10218C00079C5464D664002482F86040146582F87D
:10219C00391082F8614003F13801027C0144006877
:1021AC0002F088F9F8BD30B583B004460568D5F85F
:1021BC0040340193D5F840340093009B23F02E0358
:1021CC000093019B13F0020F07D0019B13F0010F3A
:1021DC0025D1009B43F002030093019B13F0080FE1
:1021EC0010D0009B43F008030093019B13F0040FE5
:1021FC002DD0A369022B15D0E368012B22D02046E9
:10220C0007F087F8019B13F0200F03D0009B43F0DD
:10221C0020030093009BC5F8403403B030BD07F099
:10222C006BF8D6E7019B03F4C023B3F5802F04D0E1
:10223C000121206801F0B4FFE1E70221206801F0E0
:10224C00AFFFDCE74EF66022C5F80424D7E7204642
:10225C0007F065F8D6E7F8B505460E46076807EBB4
:10226C00411707F5A064A36813F0040F40D00423B2
:10227C00A360E36843F00203E360A36813F4007FF8
:10228C0040F09380A36813F0010F00F0D7802B6906
:10229C0043B12C2303FB06539A6C2169C1F3120141
:1022AC00521A1A652C2303FB0653012283F8612072
:1022BC000021D965A26093F83F30002B00F081809B
:1022CC00022B7ED0032B00F09380012B40F08380F7
:1022DC002C2303FB0653012283F8602093F854103F
:1022EC00514083F854103146284607F011F872E03B
:1022FC00A36813F4807F06D1A36813F0200F13D0CA
:10230C002023A360B9E74FF48073A3602C2303FB55
:10231C000103072283F86120E36843F00203E360C2
:10232C00006802F042F8A8E7A36813F0080F17D171
:10233C00A36813F4806F25D1A36813F0800F9CD091
:10234C00E36843F00203E3602C2303FB0103062242
:10235C0083F86120006802F028F88023A3608CE7E2
:10236C00E36843F00203E3602C2303FB0103052223
:10237C0083F861201023A3600823A360006802F097
:10238C0014F87AE7E36843F00203E3602C2303FBC1
:10239C000103082283F861201023A3604FF48063AB
:1023AC00A360006802F001F867E7E36843F00203FA
:1023BC00E3603146286801F0F8FF4FF40073A36026
:1023CC00F8BDE36843F00203E3603146286801F08E
:1023DC00ECFF1023A3602B69012B1AD02C2000FBDF
:1023EC00065595F8543083F0010385F85430E7E72F
:1023FC00D7F8003543F00053C7F800352C2303FB06
:10240C000653012283F860203146284606F080FFEF
:10241C00E1E72C2303FB06539A6CB3F84030B2FB74
:10242C00F3F313F0010FCBD02C2303FB065595F8D7
:10243C00543083F0010385F85430C1E7A36813F0DE
:10244C00020F64D0E36823F00203E3602C2303FB48
:10245C00065393F86130012B13D0052B23D0062B98
:10246C0028D0082B26D0032B42D0072B0FD12C239E
:10247C0003FB0653DA6D0132DA65042283F860201F
:10248C0005E02C2303FB0653012283F86020022372
:10249C00A3602C2303FB065393F860203146284697
:1024AC0006F036FF8CE72C2303FB0653052283F83A
:1024BC006020ECE72C2202FB0652D36D0133D3656E
:1024CC00022B06D913460022DA65042283F8602019
:1024DC00DDE72C2303FB0653022283F86020D7F898
:1024EC00003523F0804343F00043C7F80035CEE7B6
:1024FC002C2303FB0653022283F86020D7F8003507
:10250C0023F0804343F00043C7F80035BFE7A368CE
:10251C0013F0100F3FF454AF2C2303FB065393F826
:10252C003F30032B0CD00BB1022B06D12C2303FB19
:10253C0006530022DA652B6983B11023A3603FE7B1
:10254C002C2303FB06530022DA65E36843F00203F5
:10255C00E3603146286801F028FFEEE72C2303FBEB
:10256C000653032283F86120E36843F00203E3601F
:10257C003146286801F019FFDFE770B5036803EBFB
:10258C00411303F5A064A26812F0040F06D00423D3
:10259C00A360E36843F00203E36070BD05460E469A
:1025AC00A26812F0200F18D02023A3602C2303FB69
:1025BC00010393F83D30012BEFD12C2303FB0103D6
:1025CC00002283F83D20022283F86020E368134345
:1025DC00E360006801F0E9FEDFE7A26812F4007F17
:1025EC0024D1A26812F0010F2BD02C2303FB010382
:1025FC000022DA65A36813F0400F07D02C2303FBED
:10260C000103012283F83D204023A360E36843F0DB
:10261C000203E3603146286801F0C7FE0123A36082
:10262C002C2000FB065585F86130B6E7E36843F0D3
:10263C000203E360006801F0B8FE4FF40073A3607E
:10264C00ABE7A26812F0400F29D1A26812F0080F74
:10265C003AD1A26812F0100F46D02C2303FB0103D1
:10266C000022DA65032283F8612093F83D305BB9D0
:10267C002C2303FB010393F83C302BB92C2303FBD5
:10268C000103012283F83D20E36843F00203E36079
:10269C003146286801F089FE1023A3607DE72C23C6
:1026AC0003FB0103042283F86120012283F83D20FF
:1026BC000022DA65E36843F00203E360006801F08E
:1026CC0074FE4023A36068E70823A360E36843F02B
:1026DC000203E360006801F068FE2C2303FB06553F
:1026EC00052385F8613058E7A26812F0800F29D0D5
:1026FC00036983B12C2202FB0102D36D0133D36534
:10270C00022B16D82C2303FB0105022385F860301D
:10271C008023A36041E72C2303FB0103062283F8EB
:10272C006120E36843F00203E360006801F03DFEC2
:10273C00EEE713460022DA65042283F8602006F0E7
:10274C00E7FDE5E7A26812F4806F27D1A26812F0CA
:10275C00020F3FF422AFE26822F00202E2602C2268
:10276C0002FB010292F86120012A2AD0032A5BD0D5
:10277C00042A6BD0052A70D0062A01D0082A59D118
:10278C002C2101FB0651CA6D0132CA65022A6AD995
:10279C000022CA65042281F860204BE0E36843F014
:1027AC000203E360006801F000FE1023A3604FF405
:1027BC008063A3602C2303FB0655082385F8613046
:1027CC00EBE62C2303FB010383F8602093F83F30E6
:1027DC00023BDBB293422DD8016941B92C2303FB98
:1027EC00060393F8552082F0010283F85520012945
:1027FC0020D12C2303FB0653DB6CDBB12C2202FB18
:10280C000652B2F840201344013BB3FBF2F313F031
:10281C00010F0FD02C2303FB065393F8552082F0A5
:10282C00010283F8552005E02C2303FB010302224F
:10283C0083F860200223A3602C2303FB065393F838
:10284C0060203146284606F063FDA6E62C2303FBE8
:10285C000103022283F86020ECE72C2303FB010325
:10286C0083F86020E6E72C2202FB0652022182F854
:10287C006010D3F8002522F0804242F00042C3F8E9
:10288C000025D7E7F8B504460568284601F0DAFBC1
:10289C00012800D0F8BD2E46206801F0CFFB00289F
:1028AC00F8D0206801F0CAFB10F4001F03D0236895
:1028BC004FF400125A61206801F0C0FB10F4801F25
:1028CC0003D023684FF480125A61206801F0B6FBE4
:1028DC0010F0806F03D023684FF080625A6120683B
:1028EC0001F0ACFB10F0020F02D0236802225A61F7
:1028FC00206801F0A3FB10F0005F08D023684FF0B4
:10290C0000525A61D5F8403413F0010F1DD02068E5
:10291C0001F094FB10F0807F26D1206801F08EFB33
:10292C0010F0080F24D1206801F088FB10F0100F74
:10293C0025D1206801F082FB10F0007FAAD020681E
:10294C0001F02EFD074600252CE01021284601F051
:10295C000DFB284601F022FB0121206801F020FC30
:10296C00204606F0CFFCD2E72046FFF71CFCD4E74C
:10297C00204606F0BBFC236808225A61D3E7226884
:10298C00936923F0100393612046FFF76AFA2268DB
:10299C00936943F010039361CBE7E9B22046FFF74C
:1029AC00ECFD0135A368AB4212D905F00F0327FAF1
:1029BC0003F313F0010FF4D006EB4513D3F80035F5
:1029CC0013F4004FE9D0E9B22046FFF744FCE8E7E6
:1029DC0023684FF000725A615CE790F8F832012BD3
:1029EC000ED010B50446012180F8F812006801F0F1
:1029FC0015FC206801F0ADFA002084F8F80210BD37
:102A0C000220704790F8F832012B0BD010B5044619
:102A1C00012380F8F832006801F0F6FD002084F8FC
:102A2C00F80210BD0220704708B5006801F0D7FB12
:102A3C0008BD2C2303FB010191F8600070472C2387
:102A4C0003FB0101086D704708B5006801F014FC28
:102A5C0008BD08B5006801F004FC08BD002800F0B2
:102A6C00DF8170B582B00446036813F0010F3BD0D0
:102A7C00A64B9B6803F00C03042B2CD0A34B9B6838
:102A8C0003F00C03082B21D06368B3F5803F4FD0C3
:102A9C00B3F5A02F52D09D4B1A6822F480321A60E5
:102AAC001A6822F480221A606368002B50D0FEF75B
:102ABC005DFE0546954B1B6813F4003F14D1FEF7E1
:102ACC0055FE401B6428F5D90320B0E18F4B5B68A1
:102ADC0013F4800FD8D08D4B1B6813F4003F03D038
:102AEC006368002B00F09E81236813F0020F54D012
:102AFC00864B9B6813F00C0F3ED0844B9B6803F005
:102B0C000C03082B33D0E368002B67D0804B0122D9
:102B1C001A60FEF72BFE05467C4B1B6813F0020F68
:102B2C0053D1FEF723FE401B0228F5D903207EE18A
:102B3C00764A136843F480331360B5E7734B1A6815
:102B4C0042F480221A601A6842F480321A60ABE7B1
:102B5C00FEF70CFE05466D4B1B6813F4003FC3D00B
:102B6C00FEF704FE401B6428F5D903205FE1674B98
:102B7C005B6813F4800FC6D1644B1B6813F0020F13
:102B8C0003D0E368012B40F04F81604A136823F0B7
:102B9C00F803216943EAC1031360236813F0080F9B
:102BAC0040D0636963B35B4B01221A60FEF7DEFD14
:102BBC000546564B5B6F13F0020F33D1FEF7D6FD73
:102BCC00401B0228F5D9032031E1504A136823F049
:102BDC00F803216943EAC1031360DEE74C4B002282
:102BEC001A60FEF7C3FD0546484B1B6813F0020F35
:102BFC00D3D0FEF7BBFD401B0228F5D9032016E10C
:102C0C00444B00221A60FEF7B1FD05463F4B5B6F4B
:102C1C0013F0020F06D0FEF7A9FD401B0228F5D9D0
:102C2C00032004E1236813F0040F78D0374B1B6C9E
:102C3C0013F0805F0DD100230193344B1A6C42F0DA
:102C4C0080521A641B6C03F080530193019B012585
:102C5C0000E00025304B1B6813F4807F21D0A36863
:102C6C00012B32D0052B36D0284B1A6F22F00102E3
:102C7C001A671A6F22F004021A67A368002B34D06B
:102C8C00FEF774FD0646214B1B6F13F0020F45D166
:102C9C00FEF76CFD801B41F288339842F3D9032078
:102CAC00C5E01D4A136843F480731360FEF75EFDA4
:102CBC000646194B1B6813F4807FD0D1FEF756FDE6
:102CCC00801B0228F5D90320B1E0104A136F43F0A2
:102CDC0001031367D1E70D4B1A6F42F004021A6718
:102CEC001A6F42F001021A67C7E7FEF73FFD06466E
:102CFC00064B1B6F13F0020F10D0FEF737FD801B35
:102D0C0041F288339842F3D9032090E00038024016
:102D1C0000004742800E474200700040EDB9A369A5
:102D2C00002B00F08380494A926802F00C02082ABA
:102D3C0051D0022B17D0464B00221A60FEF716FD1D
:102D4C000446424B1B6813F0007F42D0FEF70EFD89
:102D5C00001B0228F5D9032069E03C4A136C23F0D0
:102D6C0080531364DBE73A4B00221A60FEF7FEFC3B
:102D7C000546364B1B6813F0007F06D0FEF7F6FCB9
:102D8C00401B0228F5D9032051E0E369226A134362
:102D9C00626A43EA8213A26A5208013A43EA024386
:102DAC00E26A43EA0263294A5360294B01221A6002
:102DBC00FEF7DCFC0446254B1B6813F0007F06D1A4
:102DCC00FEF7D4FC001B0228F5D903202FE00020CD
:102DDC002DE000202BE0012B2BD01C4B5B6803F467
:102DEC008001E269914226D103F03F02216A8A42B6
:102DFC0023D1616A47F6C0721A40B2EB811F1ED113
:102E0C0003F44031A26A5208013AB1EB024F18D1D7
:102E1C0003F07063E26AB3EB026F14D1002006E09A
:102E2C0001207047012002E0012000E0002002B0E8
:102E3C0070BD0120FBE70120F9E70120F7E7012035
:102E4C00F5E70120F3E70120F1E700BF003802406D
:102E5C0060004742F8B52F4B9B6803F00C03042B22
:102E6C0053D0082B53D12B4B5A6802F03F025B68AE
:102E7C0013F4800F28D0274B5B68C3F388135801D9
:102E8C000021C01A61F100018E0146EA90668701AB
:102E9C003C1A66EB0105E90041EA5471E000C018E8
:102EAC0041F100014B0243EAD0534402204619463B
:102EBC000023FDF7B9F9174B5B68C3F301430133EA
:102ECC005B00B0FBF3F023E0124B5B68C3F3881399
:102EDC005C010025E41A65F10005AE0146EA946632
:102EEC00A701381B66EB0501CC0044EA5074C50001
:102EFC00E81844F100018B0243EA90538402204607
:102F0C0019460023FDF790F9D5E7034800E0034884
:102F1C00F8BD00BF0038024000127A000024F40013
:102F2C00002800F09B8070B50D4604464F4B1B6883
:102F3C0003F00F038B4208D2CBB24C4A13701368C8
:102F4C0003F00F038B4240F08B80236813F0020FC9
:102F5C0017D013F0040F04D0454A936843F4E053A0
:102F6C009360236813F0080F04D0414A936843F42C
:102F7C00604393603E4A936823F0F003A1680B43CF
:102F8C009360236813F0010F32D06368012B21D0BA
:102F9C009A1E012A25D9364A126812F0020F61D006
:102FAC0033498A6822F0030213438B60FEF7DEFB81
:102FBC0006462F4B9B6803F00C036268B3EB820F41
:102FCC0016D0FEF7D3FB801B41F288339842F0D920
:102FDC00032042E0264A126812F4003FE0D101209F
:102FEC003BE0234A126812F0007FD9D1012034E073
:102FFC001E4B1B6803F00F03AB4207D9EAB21B4B05
:10300C001A701B6803F00F03AB422DD1236813F029
:10301C00040F06D0164A936823F4E053E1680B437F
:10302C009360236813F0080F07D0114A936823F4B8
:10303C006043216943EAC1039360FFF70BFF0C4B1C
:10304C009B68C3F303130B4AD35CD8400A4B18603C
:10305C000A4B1868FEF7B4FA002070BD01207047C7
:10306C000120FAE70120F8E70120F6E7003C0240D6
:10307C000038024018970008440800204C08002033
:10308C00014B1868704700BF4408002008B5FFF7D3
:10309C00F7FF044B9B68C3F38223034AD35CD840ED
:1030AC0008BD00BF003802402897000808B5FFF79C
:1030BC00E7FF044B9B68C3F34233034AD35CD8400D
:1030CC0008BD00BF00380240289700080F2303609A
:1030DC000B4B9A6802F0030242609A6802F0F0020D
:1030EC0082609A6802F4E052C2609B68DB0803F4C9
:1030FC00E0530361034B1B6803F00F030B60704735
:10310C0000380240003C024030B583B004460368EE
:10311C0013F0430F14D1236813F00C0F69D12368FB
:10312C0013F0200F40F0BE80236813F0100F00F056
:10313C00208194F82C20904B1A60002003B030BDF5
:10314C008E4B00221A60FEF711FB05468C4B1B6858
:10315C0013F0006F06D0FEF709FB431B022BF5D9C9
:10316C000320EBE7236813F0010F07D06268A36814
:10317C001B0743EA8213824AC2F88430236813F097
:10318C00020F15D07E4AD2F884106068E3681B06E3
:10319C0043EA801301F0E0410B43C2F88430D2F8CB
:1031AC008C3023F01F03E16901390B43C2F88C30DA
:1031BC00236813F0400F0AD06268E3681B0643EAE9
:1031CC008213A26843EA02736D4AC2F884306B4BD7
:1031DC0001221A60FEF7CAFA0546694B1B6813F008
:1031EC00006F98D1FEF7C2FA401B0228F5D90320D4
:1031FC00A4E7644B00221A60FEF7B8FA0546604B50
:10320C001B6813F0005F06D0FEF7B0FA431B022BCD
:10321C00F5D9032092E7236813F0040F16D0584A0F
:10322C00D2F88810206963691B0643EA801301F009
:10323C00E0410B43C2F88830D2F88C3023F4F853B9
:10324C00216A013943EA0123C2F88C30236813F058
:10325C00080F14D04A4AD2F88830216903F0706301
:10326C0043EA8113A16943EA0173C2F88830D2F8AA
:10327C008C3023F44033616A0B43C2F88C30414BE1
:10328C0001221A60FEF772FA05463D4B1B6813F0DB
:10329C00005F7FF444AFFEF769FA401B0228F4D9B3
:1032AC0003204BE700230193354B1A6C42F08052FC
:1032BC001A641B6C03F080530193019B324A136810
:1032CC0043F480731360FEF751FA05462E4B1B68CE
:1032DC0013F4807F06D1FEF749FA401B0228F5D97A
:1032EC0003202BE7264B1B6F13F4407312D0A26AFA
:1032FC0002F440729A420DD0214B1A6F22F44072A4
:10330C00224901200860002008601A671B6F13F027
:10331C00010F12D1A36A03F44072B2F5407F1DD0A5
:10332C00174A936823F4F813936015490B6FA26A3C
:10333C00C2F30B0213430B67F6E6FEF717FA0546CA
:10334C000F4B1B6F13F0020FE4D1FEF70FFA401B6B
:10335C0041F288339842F3D90320EFE608498A6892
:10336C0022F4F81223F0704323F4407313438B6060
:10337C00DBE70020E2E600BFE0114742680047426D
:10338C00003802407000474200700040400E474237
:10339C0001290AD00123426B082A08D04268023A5C
:1033AC00012A0CD943F0040070470923F3E7426863
:1033BC00032A01D0012AF1D143F01003EEE743F0C8
:1033CC00600070470E4B1B680E4AA2FB03231B0BBD
:1033DC009B0001680A6822F480320A601A46013B9D
:1033EC0032B10268126812F4803FF7D100207047A6
:1033FC00D0F8843043F04003C0F884300320704789
:10340C00440800201BECCB95002800F0B88070B568
:10341C00044690F88130A3B1022384F88130204611
:10342C00FFF7D0FF204600F05BF9236A73B963689D
:10343C0053B3022B28D0236C012B00F0968000266E
:10344C0027E080F88030FEF751F8E5E7204600F0E1
:10345C0057F900EB80004000236A5B02B0FBF3F0ED
:10346C00484BA3FB0023DB08636203EB8302A0EB56
:10347C004200082801D901336362636B042BD6D157
:10348C00636A5B086362D2E7236C012B6BD04FF449
:10349C000076A268012A6DD0002A6ED0023A012A69
:1034AC0066D84FF4006021680B68374A1A400A60EE
:1034BC0021680A686368656B2B43A56B2B43E56B2E
:1034CC002B4333430343A06A0343206903436069DE
:1034DC000343606A43EA005313430B60226853684A
:1034EC0023F4604323F00F03536021684A68A369F7
:1034FC00E06A0343206B034313434B6022689168DB
:10350C00224B0B40936020688268636C013B616DB9
:10351C000B43E16C0B43216D0B43A16C013943EA66
:10352C000123134383602268D36823F47D6323F063
:10353C000F031B041B0CD3602068C268A36DE16DE4
:10354C000B43616E43EA0143216E013943EA0123C7
:10355C001343C3600020C4F88400012384F8813035
:10356C0084F8800070BD002693E74FF4007690E756
:10357C00002098E74FF4806095E7002093E7012046
:10358C00704700BFCDCCCCCC10C005FF0080F8FF3D
:10359C0070B500294ED004460B46002A4CD090F84A
:1035AC008150EDB2012D4AD190F88010012948D0FC
:1035BC00012180F880108366A0F86C20A0F86E20A2
:1035CC000023C0F88430222280F88120426F1E49EB
:1035DC001164426F1D49D163426F1D49D164426F22
:1035EC0013650168B0F86C30826E1C31406FFEF7C9
:1035FC000FFA064618B1002384F880301DE0002134
:10360C002046FFF7C5FE2268136903431361226845
:10361C00136843F40033136023681A6812F4803F74
:10362C0003D11A6842F480321A60002384F8803087
:10363C00354602E0012500E00125284670BD022533
:10364C00FBE70225F9E700BF9B360008613600084E
:10365C00A736000810B5846BC369B3F5807F12D010
:10366C002268136823F4003313600021A4F86E1051
:10367C002046FFF78DFE2268136923EA00031361CD
:10368C00012384F881302046FDF7D6FC10BD08B527
:10369C00806BFDF7C7FC08BD704710B5846BD4F880
:1036AC00843043F08003C4F88430236F5B6D012BAE
:1036BC0007D0636F5B6D012B03D02046FFF7ECFF47
:1036CC0010BD2268136823F4003313602046FFF703
:1036DC0079FE012384F881300023A4F86E30ECE7E6
:1036EC00C368012B05D0022B05D12023034A13609C
:1036FC0070471023FAE70023F8E700BF0058014099
:10370C0002682F4B9A422CD02E4AD2F88C3023F4DC
:10371C004003C16943EA8103C2F88C30294B5B68D2
:10372C0013F4800F27D1274B5A6802F03F02264B27
:10373C00B3FBF2F3C26932BB224AD2F88810C1F350
:10374C000361D2F88800C0F3881003FB00F0B0FBD3
:10375C00F1F0D2F88C30C3F304230133B0FBF3F057
:10376C007047184AD2F88C3023F44013C1690B43CC
:10377C00C2F88C30D2E7134B5A6802F03F02134B5D
:10378C00B3FBF2F3D6E7B2F5801F04D0104B012245
:10379C001A60104870470B4AD2F88410C1F30361C9
:1037AC00D2F88400C0F3881003FB00F0B0FBF1F0FA
:1037BC00D2F88C3003F01F030133B0FBF3F07047E9
:1037CC0004580140003802400024F40000127A0032
:1037DC005C0147420080BB0030B4036A056A25F0E7
:1037EC0001050562846924F0F00444EA021423F014
:1037FC000A030B438461036230BC704730B4056A22
:10380C0025F0100505628469036A24F4704444EAC7
:10381C00023423F0A00343EA01138461036230BC39
:10382C007047836823F070030B4343F007038360F6
:10383C007047000090F83D30DBB2012B37D10223EA
:10384C0080F83D300268D36843F00103D36003680D
:10385C00194A934220D0B3F1804F1DD0A2F57C427F
:10386C00934219D002F58062934215D002F5806222
:10387C00934211D002F5784293420DD002F570526A
:10388C00934209D0A2F59432934205D01A6842F0C3
:10389C0001021A60002070479A6802F00702062A9B
:1038AC0007D01A6842F001021A600020704701200C
:1038BC0070470020704700BF000001407047704700
:1038CC007047704710B5044603681A6912F0020F6E
:1038DC0011D0DA6812F0020F0DD06FF002021A61EB
:1038EC000123037703689B6913F0030F70D0FFF774
:1038FC00E6FF0023237723681A6912F0040F12D015
:10390C00DA6812F0040F0ED06FF004021A61022371
:10391C00237723689B6913F4407F5FD02046FFF721
:10392C00CEFF0023237723681A6912F0080F12D0F8
:10393C00DA6812F0080F0ED06FF008021A61042337
:10394C0023772368DB6913F0030F4ED02046FFF773
:10395C00B6FF0023237723681A6912F0100F12D0D8
:10396C00DA6812F0100F0ED06FF010021A610823F3
:10397C0023772368DB6913F4407F3DD02046FFF7A3
:10398C009EFF0023237723681A6912F0010F03D0DE
:10399C00DA6812F0010F36D123681A6912F0800F21
:1039AC0003D0DA6812F0800F34D123681A6912F050
:1039BC00400F03D0DA6812F0400F32D123681A6935
:1039CC0012F0200F03D0DA6812F0200F30D110BDA6
:1039DC00FFF774FF2046FFF773FF8AE72046FFF7D7
:1039EC006DFF2046FFF76CFF9BE72046FFF766FF55
:1039FC002046FFF765FFACE72046FFF75FFF204648
:103A0C00FFF75EFFBDE76FF001021A612046FDF77C
:103A1C0051FBC1E76FF080021A61204600F06FF98C
:103A2C00C3E76FF040021A612046FFF74AFFC5E773
:103A3C006FF020021A61204600F060F9C7E7000021
:103A4C000368304A904212D0B0F1804F0FD0A2F5EB
:103A5C007C4290420BD002F58062904207D002F576
:103A6C008062904203D002F57842904203D123F059
:103A7C0070034A681343234A90422AD0B0F1804F16
:103A8C0027D0A2F57C42904223D002F5806290426E
:103A9C001FD002F5806290421BD002F57842904212
:103AAC0017D002F57052904213D002F5806290420A
:103ABC000FD002F5806290420BD0A2F59832904262
:103ACC0007D002F58062904203D002F580629042EA
:103ADC0003D123F44073CA68134323F080034A696B
:103AEC00134303608B68C3620B688362054B984277
:103AFC0003D003F58063984201D10B690363012362
:103B0C00436170470000014040B310B5044690F883
:103B1C003D30F3B1022384F83D30214651F8040BBB
:103B2C00FFF78EFF012384F8463084F83E3084F88A
:103B3C003F3084F8403084F8413084F8423084F8C7
:103B4C00433084F8443084F8453084F83D3000200C
:103B5C0010BD80F83C30FDF777FCDBE701207047A7
:103B6C0010B4846824F47F4442EA03220A432243BB
:103B7C00826010BC704790F83C30012B78D010B5A7
:103B8C000446012380F83C30022380F83D30026863
:103B9C00936823F47F4323F0770393600B68602BC7
:103BAC004CD029D8402B54D00CD9502B22D1CA68D8
:103BBC0049680068FFF710FE50212068FFF731FEBE
:103BCC00002005E0202B0DD009D9302B0AD0012084
:103BDC00012384F83D30002384F83C3010BD0BB138
:103BEC00102B05D119462068FFF71BFE0020EFE7CC
:103BFC000120EDE70120EBE7B3F5805F34D0B3F59E
:103C0C00005F0CD1CB684A6889680068FFF7A8FF91
:103C1C002268936843F4804393600020D8E7702BAC
:103C2C0024D1CB684A6889680068FFF799FF22683D
:103C3C00936843F0770393600020C9E7CA6849682A
:103C4C000068FFF7DBFD60212068FFF7EAFD00202C
:103C5C00BEE7CA6849680068FFF7BEFD40212068CE
:103C6C00FFF7DFFD0020B3E70020B1E70120AFE74D
:103C7C000220704790F83C30012B3BD030B401232C
:103C8C0080F83C30022380F83D3003685C689D6806
:103C9C0024F070040A6822435A600368164A93425F
:103CAC001AD0B3F1804F17D0A2F57C42934213D0B7
:103CBC0002F5806293420FD002F5806293420BD0E2
:103CCC0002F57842934207D002F57052934203D02A
:103CDC00A2F59432934204D125F080054A6815432D
:103CEC009D60012380F83D30002380F83C3018465D
:103CFC0030BC70470220704700000140704770478D
:103D0C0070B504460268136923F44053C1680B4331
:103D1C00136183680269134342691343C2691A43EE
:103D2C000168CB6823F4164323F00C031343CB60D8
:103D3C000268536923F4407381690B435361036830
:103D4C00344A934206D002F58062934202D0FFF7C8
:103D5C009DF901E0FFF7AAF9E369B3F5004F2AD00A
:103D6C000026051846EB06012D1846EB0101CB0089
:103D7C0043EA5573EA001546194663689A009B0F8F
:103D8C00281846EB0101FCF74FFA234DA5FB003236
:103D9C005109642303FB11031B013233A5FB0323DD
:103DAC005B0903F0F00202EB011203F00F03216830
:103DBC0013448B6070BD0026051846EB06012D18C8
:103DCC0046EB0101CB0043EA5573EA001546194650
:103DDC0062683346921846EB0303281846EB010140
:103DEC00FCF722FA0C4DA5FB00325109642303FBAE
:103DFC001103DB003233A5FB03235B095A0002F4E9
:103E0C00F87202EB011203F00703216813448B6074
:103E1C00D0E700BF001001401F85EB5158B310B51F
:103E2C00044690F83D300BB3242384F83D302268CF
:103E3C00D36823F40053D3602046FFF761FF226858
:103E4C00136923F4904313612268536923F02A0306
:103E5C0053612268D36843F40053D360002020647C
:103E6C00202384F83D3084F83E3010BD80F83C307F
:103E7C00FDF702FBD8E701207047000082B0002359
:103E8C000193019B013301930E4A934214D80369A9
:103E9C00002BF6DA00230193036943F0010303615D
:103EAC00019B01330193074A934208D8036913F02D
:103EBC00010FF5D1002000E0032002B07047032071
:103ECC00FBE700BF400D030084B010B5044603A807
:103EDC0080E80E00089B012B1FD1A36B23F48033C9
:103EEC00A363E36823F4840323F04003E360E368F3
:103EFC0023F44013E3600F9B012B09D02046FFF7FE
:103F0C00BDFF069B012B1BD0BDE8104004B07047D1
:103F1C00E36843F48013E360F0E7E36843F04003A5
:103F2C00E3602046FFF7AAFF0C9B23B9A36B43F475
:103F3C008033A363E5E7A36B23F48033A363E0E74B
:103F4C00A36843F00603A360A36843F02003A360B7
:103F5C00DAE7836843F001038360002070478368CD
:103F6C0023F00103836000207047000082B000231F
:103F7C000193890141F020010161019B01330193FF
:103F8C00054A934205D8036913F0200FF5D10020A0
:103F9C0000E0032002B07047400D030082B0002304
:103FAC00019310230361019B01330193054A934252
:103FBC0005D8036913F0100FF5D1002000E00320A1
:103FCC0002B07047400D030070B49DF80C4064B90A
:103FDC0003339D08AC4208D200EB023303F5805347
:103FEC0051F8046B1E600134F4E7002070BC70477C
:103FFC00F0B482B0074608463E46950802F003022C
:10400C000023AB4206D206F58054246840F8044BDA
:10401C000133F6E77AB107F580573B680193002529
:10402C00EBB2DC00019BE34000F8013B0135013AA7
:10403C0092B2002AF4D102B0F0BC70474269806998
:10404C0010407047406900F00100704738B50546D4
:10405C00C36823F0C043C360012913D019BBC368E4
:10406C0043F08043C36000240120FDF785FB01343D
:10407C002846FFF7E7FF08B1312CF5D9322C14D0C4
:10408C00002038BDC36843F00053C36000240120F6
:10409C00FDF772FB01342846FFF7D4FF0128EDD061
:1040AC00312CF4D9EAE70120EBE70120E9E7000025
:1040BC0084B038B5044605A880E80E0025460023D8
:1040CC00C4F8003EA36B43F40013A363A36B23F467
:1040DC000023A363A36B23F48023A363E36B13F488
:1040EC00807F10D0079B012B06D0D4F8003423F02E
:1040FC000403C4F800340CE0D4F8003443F0040397
:10410C00C4F8003405E0D4F8003423F00403C4F8F8
:10411C00003410212046FFF729FF2046FFF73EFF11
:10412C000022069B93420AD905EB42134FF0FF3154
:10413C00C3F808150021C3F80C150132F1E7002370
:10414C00A3614FF0FF336361E36B13F4807F17D0EF
:10415C004FF40073636203F18073A3620D4BC4F8D8
:10416C000031089B1BB9A36943F01003A361A2693A
:10417C00094B1343A3610020BDE8384004B07047DD
:10418C008023636203F5C003A362044BC4F80031BF
:10419C00E7E700BF0003E000080020A3E0004000B8
:1041AC0010B400F58064D0F8003423F00303C0F899
:1041BC000034D0F8003401F003021343C0F800348B
:1041CC00012904D0022906D0002010BC70474BF600
:1041DC0080336360F8E741F270736360F4E730B5E5
:1041EC0083B0044600250195D0F840340193019B1F
:1041FC0023F02E030193019B43F48073C0F84034E9
:10420C006420FDF7B9FA019B23F48073C4F84034A1
:10421C000A20FDF7B1FA284603B030BD82B0002366
:10422C000193D0F840340193019B23F02E030193AA
:10423C00019B13F4805F01D101290CD0019B13F475
:10424C00805F05D021B9019B23F48053C0F8403422
:10425C00002002B07047019B43F48053C0F84034F7
:10426C00ECE782B000230193D0F84034019301981D
:10427C00C0F3414002B0704700F58060806880B2A6
:10428C0070472DE9F84391461C469DF8245000EBED
:10429C00411606F5A0634FF0FF329A60032D6AD8E1
:1042AC00DFE805F0025B021840F29D42DA6019F07B
:1042BC00800F09D1C26B12F4807F5ED0DA6842F0B5
:1042CC006002DA6000270CE0DA6842F48072DA608F
:1042DC00002706E040F29D62DA6019F0800F36D1BB
:1042EC000027D0F8183401F00F01012202FA01F175
:1042FC001943C0F81814836943F00073836119F0F3
:10430C00800F3CD14FF00008FFF7ABFF9DF8203039
:10431C00022B37D00021A30503F0FE534FEAC92925
:10432C0009F4F04943EA0903AC0404F440242343A0
:10433C00BDF82820C2F30A02134343EA08030B43D7
:10434C00C6F80035032D24D03846BDE8F883DA686A
:10435C0042F48072DA600027C3E740F22522DA606B
:10436C0019F0800F01D10027BBE7DA6842F4C07264
:10437C00DA600027B5E70127B3E70027B1E74FF470
:10438C000048C1E7022802D04FF40031C3E70021F6
:10439C00C1E7D6F8003543F00053C6F80035D3E733
:1043AC0000F58060406980B2704730B400EB411179
:1043BC0001F5A062D1F80035C3F38143D1F8004573
:1043CC00856815F0200F02D0E40F002C55D033B3C4
:1043DC00022B24D0D1F8003543F08043C1F80035CE
:1043EC00D0F8103413F47F034AD1D1F8000520F033
:1043FC000040C1F80005D1F8000540F00040C1F8BC
:10440C000005D1F8000520F40040C1F80005013387
:10441C00B3F57A7F31D811680029F8DB2DE0D1F89B
:10442C00003543F08043C1F80035836813F0200F4A
:10443C0023D1C36A13F47F0319D1D1F8000520F0FE
:10444C000040C1F80005D1F8000540F00040C1F86B
:10445C000005D1F8000520F40040C1F80005013337
:10446C00B3F57A7F09D811680029F8DB05E0D1F89B
:10447C00003543F00043C1F80035002030BC7047D4
:10448C00D1F8003543F00043C1F80035F5E70000E2
:10449C0000EB4111064AC1F81025D1F8003523F084
:1044AC00804343F00043C1F800350020704700BF43
:1044BC000000088070B584B04B78C46B14F4807F16
:1044CC0007D00C792CB9012A11D012B94C79012CD6
:1044DC001AD04E69E6B10C893519013DB5FBF4F5DE
:1044EC00ADB2B5F5807F14D94FF4807511E0CC795D
:1044FC000CB1022CE9D100EB4314D4F80C5525F087
:10450C007005C4F80C55E0E74978FFF7C1FF6AE085
:10451C000125CC78002C4DD00C8904FB05F40C61E2
:10452C000C69C4F31204374E06EAC5452C438D7A48
:10453C006D0705F0C04500EB431303F5A0662C4353
:10454C00C3F8104512B1CC68C3F8144500F580656A
:10455C00AC6814F0010FD3F8004524F00054C3F8F4
:10456C000045D3F800450CBF4FF0005600263443ED
:10457C00C3F80045D3F800450394039C24F0804411
:10458C000394CC78C4B1039C44F400440394039C7E
:10459C0044F000440394039CC3F800451ABBCB7849
:1045AC000BBB4B69FBB1CA79032A15D8DFE802F0C3
:1045BC00091E091E0E61B3E7039C24F40044039406
:1045CC00E5E70333C26A92B2C3F38F039A4203D274
:1045DC00836943F020038361002300938B8A4A781C
:1045EC00C968FFF7F1FC002004B070BD03332A69E1
:1045FC0092B2C3F38F039A42EED2836943F0806385
:10460C008361E9E70000F81F70B505460446FFF723
:10461C00A6FC10212846FFF7A9FC2846FFF7BEFC94
:10462C0000220AE004EB4211D1F8003523F080237C
:10463C0043F08043C1F8003501320F2AF2D9002033
:10464C00034600E001300F2813D804EB401606F5A2
:10465C00A061D6F8002522F4004242F04042C6F890
:10466C0000250133B3F57A7FECD80A68002AF8DB11
:10467C00E8E74FF0FF33C5F814346B612846FFF7B9
:10468C0068FC002070BD000008B50349034804F025
:10469C002DFD034B187008BD602D002038970008C5
:1046AC00642D0020002070470020704708B501469B
:1046BC00034800F056FB08B1002008BD0120FCE7C0
:1046CC000032002010B590B0044600930B46014612
:1046DC000D4800F07BFB08B910B010BD03AA2146B1
:1046EC00094800F051FB9DF81930282B07D03A2BC4
:1046FC0007D0042B01D00120EEE70320ECE70320C8
:10470C00EAE70320E8E700BF0032002030B58FB0A5
:10471C000C461546032924D8DFE801F002050E18D3
:10472C0008460FB030BD01AA0146124800F02CFB20
:10473C00C8B9029B2B60F4E701AA01460D4800F0B2
:10474C0023FB90B9BDF80C302B60EAE701AA0146B7
:10475C00084800F019FB50B9BDF80C305B0A2B600F
:10476C00DFE70420DDE72046DBE70120D9E7012065
:10477C00D7E700BF0032002010B590B0044600937C
:10478C000B460146104800F06CFB08B910B010BD88
:10479C0003AA21460C4800F0F7FA9DF81930272B94
:1047AC000CD005D9282B0BD03A2B0BD10320EDE7DD
:1047BC00042B01D00120E9E70320E7E70220E5E71D
:1047CC000320E3E70120E1E70032002000207047DE
:1047DC0070B5D0F87C33DE69337B23B1012B40F00C
:1047EC004581002070BD0446B6F8F8103378994224
:1047FC0080F03181342303FB0163012283F8912083
:10480C0093F89030082B00F23381DFE813F00900A5
:10481C00310144009E001500D300310131011F010C
:10482C00342303FB0161042381F89030D0F8C433A6
:10483C00C6F8FC300120D5E7342202FB01F2983295
:10484C0032440732C9B200F054FD034638B9B6F809
:10485C00F820342101FB0262022182F89010022B15
:10486C0003D0042B0BD00120BCE7B6F8F83034226F
:10487C0002FB0366052386F890300120B2E7B6F8F8
:10488C00F830342202FB0366012086F890000223E4
:10489C0086F89130A6E7C9B200F0BBFC0246C0B95D
:1048AC00B6F8F830342101FB036191F89210B1B1E4
:1048BC00342101FB0361012081F8C100342101FB8B
:1048CC000363032183F89010002183F8911083F87F
:1048DC009210022A0AD0042A2BD0012082E734211C
:1048EC0001FB0361002081F8C100E7E7B6F8F8305E
:1048FC00342202FB036292F89220022A12D0342254
:10490C0002FB0362012182F8C110342202FB036610
:10491C00052386F89030012086F89100022386F852
:10492C0092305FE7342202FB0362002182F8C1104F
:10493C00EBE7B6F8F830342202FB0366012086F868
:10494C009000022386F891304CE7342202FB01F2EE
:10495C00903232440432C9B200F084FC70B9B6F81B
:10496C00F830342202FB0362012082F8900000210F
:10497C0082F891100344A6F8F83033E7022803D0EC
:10498C0004280BD001202DE7B6F8F830342202FBB6
:10499C000366052386F89030012023E7B6F8F8303B
:1049AC00342202FB0366012086F89000022386F86D
:1049BC00913017E7342202FB01F298323244043270
:1049CC00C9B200F002FD024698B9B6F8F8303421AD
:1049DC0001FB036191F89C10062910D002290ED01E
:1049EC00342101FB0361012081F890000344A6F8F7
:1049FC00F830022A14D0042A1CD00120F2E6D4F894
:104A0C00C413D6F8FC00091A42F20F708142E7D8A1
:104A1C00342202FB0363022283F890200120E1E69A
:104A2C00B6F8F830342202FB0366082386F890307F
:104A3C000120D7E6B6F8F830342202FB03660120D9
:104A4C0086F89000022386F89130CBE60131A6F867
:104A5C00F8100120C6E60023A6F8F83001253573BE
:104A6C00D0F8D433022198472846BBE60120B9E69A
:104A7C000120B7E638B5D0F87C33DC69A37B022B78
:104A8C0004D0032B24D00BB1012038BD214600F0FB
:104A9C0075FA032802D00028F7D101E0002020701D
:104AAC002178022904D80131C9B2217000230CE00D
:104ABC000221FAE7342202FB0342022582F89250CB
:104ACC00002582F8C1500133DBB28B42F2D3DCE714
:104ADC00002101F01EFB18B9E37BA3730120D4E77E
:104AEC000120D2E738B50446D0F87C33DD6969790A
:104AFC0069B92979A1B9D4F87C33D86928B1FBF705
:104B0C005FFDD4F87C330022DA61002038BD01F05F
:104B1C0092FB6979204601F0A6FB00236B71E8E754
:104B2C00204601F088FB2979204601F09CFB0023EC
:104B3C002B71E0E72DE9F04184B00446D0F87C13EA
:104B4C0050230622097900F0C1FE012800F285806D
:104B5C0006460146204600F0AFFE0746002840F00E
:104B6C008180D4F87C534FF48070FBF721FDE86111
:104B7C00D4F87C33DD69002D76D04FF4807200219F
:104B8C002846FBF7D7FF1A2303FB064393F84E2363
:104B9C0093F94E33002B50DBAA711A2303FB064307
:104BAC00B3F850332B811A2303FB064393F8562397
:104BBC0093F95633002B48DBAA711A2000FB0646EA
:104BCC00B6F858332B8100262E736E73AE73A97909
:104BDC00204601F035FB6871E979204601F030FB85
:104BEC002871204600F0D8F9AA7969792B890293AB
:104BFC004FF00208CDF8048094F81D33009394F81C
:104C0C001C33204601F007FBEA7929796B89029362
:104C1C00CDF8048094F81D33009394F81C3320468F
:104C2C0001F0F9FA32462979204604F0D6FB3246D7
:104C3C006979204604F0D1FB10E0EA711A2303FBDA
:104C4C000643B3F850336B81ADE7EA711A2000FBD1
:104C5C000646B6F858336B81B5E70227384604B0E0
:104C6C00BDE8F0810227F9E70227F7E730B583B0FA
:104C7C000C46D0F87C33DD69342303FB015393F8E5
:104C8C009030062B06D0072B27D0052B48D00120BF
:104C9C0003B030BD00220092134600F027FC30B95F
:104CAC00342101FB0454012384F89030F0E70228EE
:104CBC0003D0042809D00120EAE7342303FB045471
:104CCC00052384F890300120E2E7342303FB0454DD
:104CDC00082384F890300220DAE700220092134671
:104CEC0000F0BDFB30B9342101FB0454012384F8DE
:104CFC009030CDE7022803D0042809D00120C7E763
:104D0C00342303FB0454052384F890300120BFE7BF
:104D1C00342303FB0454082384F890300220B7E7B3
:104D2C00342202FB01F298322A44043200F04DFB8B
:104D3C000346A0B9342202FB0452012182F89010E0
:104D4C00022082F89100022BA2D0042BA0D1342394
:104D5C0003FB0454082384F89030022098E70120C8
:104D6C00F1E7D0F87C33DA690378DBB20B2B01D096
:104D7C0000207047342303FB012191F891300BB1D3
:104D8C000020704701207047D0F87C33DB69007835
:104D9C00C0B20B2801D00220704770B4342000FB45
:104DAC0001F190310B4403F130061D685C68986882
:104DBC00D968156054609060D16010331032B342E2
:104DCC00F3D11B681360002070BC70472DE9F041D3
:104DDC0082B00D46089ED0F87C13CF6990F8201352
:104DEC00C9B304460178C9B20B2936D1342101FB71
:104DFC00057191F89010012901D002202EE00620B7
:104E0C003873342101FB057181F89000A7F8FA5032
:104E1C0000962946204600F069FBD4F8C483294645
:104E2C002046FFF723FF012811D1D4F8C423A2EBAD
:104E3C00080242F2107303FB06F39A4203D894F86B
:104E4C002033002BEBD101233B73022006E001231E
:104E5C003B73002002E0022000E0022002B0BDE81B
:104E6C00F0812DE9F04182B00D46089ED0F87C13FC
:104E7C00CF6990F82013C9B304460178C9B20B2945
:104E8C0036D1342101FB057191F89010012901D024
:104E9C0002202EE007203873342101FB057181F8C4
:104EAC009000A7F8FA5000962946204600F0D7FA51
:104EBC00D4F8C48329462046FFF7D8FE012811D127
:104ECC00D4F8C423A2EB080242F2107303FB06F3DE
:104EDC009A4203D894F82033002BEBD101233B7377
:104EEC00022006E001233B73002002E0022000E0D8
:104EFC00022002B0BDE8F08110B5D0F87C33DC693B
:104F0C00217904F051FA0D2801D0022010BDA26FB6
:104F1C000A4B9A4201D00220F8E7E26FA36D9A4245
:104F2C0001D00120F2E794F884000028EED001288B
:104F3C00ECD00228EAD00120E8E700BF55534253D9
:104F4C0008B5D0F87C33D9691AB1012A05D00220F2
:104F5C0008BDC97901F0DDF8FAE7897901F0D9F8D3
:104F6C00F6E708B521220274FF2242740021418227
:104F7C008182C1820A4601F010F808BD08B5A12251
:104F8C000274FE2242740022428282820122C28278
:104F9C0001F003F808BD0000D0F87C33DB69054A4A
:104FAC005A65054A9A65012283F8502083F85220ED
:104FBC0000207047555342435040302070B582B0AA
:104FCC000546D0F87C33DE6996F85040631E0A2BF8
:104FDC0000F21D81DFE813F00B001B0042004D00B6
:104FEC0077008300B600C100DD00EF00110186F8E8
:104FFC006110022386F850307379012200921F222F
:10500C0006F1540101F0CEF8204602B070BD717962
:10501C0004F0D0F90446012805D0022815D0052843
:10502C0017D00124F0E7F36D5BB196F96030002BDB
:10503C0003DB052386F85030E6E7032386F850306F
:10504C00E2E7072386F85030DEE7012486F850406B
:10505C00DAE70A2386F850300124D5E733797289D0
:10506C00D6F88C1001F0B4F8042386F850300124E3
:10507C00CAE7317904F09EF90446012803D00528CB
:10508C001CD00124C0E7F36D728993420CD9D6F879
:10509C008C101144C6F88C109B1AF365F36D33B960
:1050AC00072386F85030AFE70023F365F6E7337932
:1050BC00D6F88C10284601F08BF8A5E7092386F862
:1050CC0050300124A0E773793289D6F88C10012472
:1050DC00009401F067F8062386F8503094E7717954
:1050EC0004F068F90446012805D0022820D00528D0
:1050FC0023D0012488E7F36D328993420CD9D6F87A
:10510C008C101144C6F88C109B1AF365F36D33B9EF
:10511C00072386F8503077E70023F365F6E77379B9
:10512C00D6F88C1001200090284601F03BF86BE774
:10513C00052386F85030012466E70A2386F85030A0
:10514C00012461E733790D2206F1780101F040F872
:10515C00082386F85030012456E7317904F02AF9F7
:10516C00012803D005280FD001244DE7012386F830
:10517C00503086F852302846FFF7BEFE0446002811
:10518C003FF442AF02243FE7092386F85030012454
:10519C003AE70022FFF7D4FE20B9072386F85030F7
:1051AC00012431E7042801D001242DE70B2386F8D4
:1051BC005030012428E70122FFF7C2FE18B1042861
:1051CC0016D0012420E77179284604F01BF9C0F1B0
:1051DC000102D2B27179284604F0FFF8002231792D
:1051EC00284604F0FAF8092386F8503001240BE71E
:1051FC000B2386F85030012406E7FFF7B2FE044675
:10520C0000287FF401AF012386F85030FCE601241E
:10521C00FAE608B50246D0F87C33DB6993F8520005
:10522C00012803D0022819D0022008BD0022DA651B
:10523C0083F860200A2183F86210C3F86320C3F856
:10524C006720C3F86B20C3F86F2083F8632001221A
:10525C0083F85020022283F85220E6E71046FFF72D
:10526C00ADFEE2E738B50346D0F87C03C46994F888
:10527C005200012804D01546022820D0012038BD48
:10528C000823E365802384F860300A2384F86230B5
:10529C000023C4F86330C4F86730C4F86B30C4F82A
:1052AC006F30252384F86330012384F850300223B7
:1052BC0084F8523004F11003C4F88C30DFE7184640
:1052CC00FFF77CFE0028DAD1D4F88C20D3789178C3
:1052DC0043EA0123517843EA0143127843EA02631B
:1052EC002B60D4F88C20D379927943EA0223AB80DB
:1052FC00C5E770B5D0F87C33DC6994F85250012DB9
:10530C0005D01646022D26D00225284670BD242233
:10531C00E265802384F860300A2384F8623000232D
:10532C00C4F86930122084F86300490184F86410D1
:10533C0084F8653084F8663084F8672084F8683027
:10534C00012384F85030022384F8523004F1100306
:10535C00C4F88C30D9E7FFF731FE05460028D4D1CC
:10536C00222200213046FBF7E5FBD4F88C301B7869
:10537C0003F01F037370D4F88C301B785B09337007
:10538C00D4F88C3093F90130002B1BDB0023B37065
:10539C00D4F88C3053F8082F5B68C6F80320C6F895
:1053AC000730D4F88C3053F8100F59689A68DB68C2
:1053BC00F06031617261B361D4F88C301B6AC6F84D
:1053CC001D30A2E70123B370E2E738B50346D0F8ED
:1053DC007C03C46994F85200012804D015460228B5
:1053EC0029D0022038BD0E22E265802384F860307B
:1053FC000A2384F862300023C4F86730C4F86B3099
:10540C00C4F86F30032584F86350490184F86410A4
:10541C0084F8653084F8663084F8672084F8683046
:10542C00012384F85030022384F8523004F1100325
:10543C00C4F88C30D6E71846FFF7C0FD0028D1D150
:10544C00D4F88C309B7803F00F032B70D4F88C308D
:10545C001B7B6B70D4F88C305B7BAB70C2E738B5C0
:10546C000546D0F87C03C46994F85200012803D097
:10547C00022837D0022038BDB4F89810049D05FBE3
:10548C0001F1E165002184F860100A2584F862506E
:10549C00C4F86310C4F86710C4F86B10C4F86F102C
:1054AC002A2184F86310C2F3076184F86510C2F3F3
:1054BC00074184F86610C2F3072184F8671084F85A
:1054CC006820049AC2F3072284F86A20049A84F8AC
:1054DC006B20012284F85020022284F85220C4F858
:1054EC008C30C8E72846FFF769FDC4E738B5054698
:1054FC00D0F87C03C46994F85200012803D0022828
:10550C0036D0022038BDB4F89810049D05FB01F18B
:10551C00E165802184F860100A2184F86210002172
:10552C00C4F86310C4F86710C4F86B10C4F86F109B
:10553C00282184F86310C2F3076184F86510C2F364
:10554C00074184F86610C2F3072184F8671084F8C9
:10555C006820C5F3072284F86A2084F86B50012276
:10556C0084F85020022284F85220C4F88C30C9E709
:10557C002846FFF723FDC5E710B40446002306E0D8
:10558C0003F1E00204EB82020021516001330E2B87
:10559C00F6D90023B3F5007F05D2E218002182F87A
:1055AC001C110133F6E70020207060700123A370FA
:1055BC00C4F8C40323764022A271607684F81C03DD
:1055CC0084F81D3384F81F0384F81E0310BC704745
:1055DC0008B50378DBB20B2B00D008BDD0F87C33B8
:1055EC00002BFAD09B699847F7E770B584B0044656
:1055FC004578072D00F22C81DFE815F008004800F3
:10560C0069009A00BF00E500FE001701082100F0B8
:10561C0003FD18B1032821D0012509E194F82D339D
:10562C00A3710125657002930026019694F81D3331
:10563C00009394F81C3380222179204600F0EBFD76
:10564C00A3790293019694F81D33009394F81C33BC
:10565C0032466179204600F0DEFDE9E094F81E3315
:10566C000133DBB284F81E33032B03D90D232370D3
:10567C000125DDE06179204600F0F5FD2179204619
:10568C0000F0F1FD002323700125D1E0122100F080
:10569C00C3FC10B902236370CAE0032840F0C88031
:1056AC0094F81E330133DBB284F81E33032B02D97A
:1056BC000D232370BCE06179204600F0D4FD2179E4
:1056CC00204600F0D0FD002363702370B0E0012170
:1056DC0000F0ECFC18B1032824D00125A8E002202E
:1056EC0003F0A4FE012584F81C5303236370A379F3
:1056FC0002930026019694F81D3300932B468022CA
:10570C002179204600F087FDA3790293019694F845
:10571C001D33009394F81C3332466179204600F017
:10572C007AFD85E00D2323700023637001257FE053
:10573C00092100F08AFC18B904236370012577E075
:10574C00032801D0012573E094F81E330133DBB23A
:10575C0084F81E33032B03D90D232370012567E036
:10576C006179204600F07FFD2179204600F07BFD19
:10577C0000236370237001255AE0B0F83A1300F04F
:10578C0064FC18B905236370012551E0032801D08E
:10579C0001254DE094F81E330133DBB284F81E333F
:1057AC00032B03D90D232370012541E06179204699
:1057BC0000F059FD2179204600F055FD002363705F
:1057CC002370012534E090F8341319B90623437083
:1057DC0001252DE0FF2300F58E7200F04FFC18B967
:1057EC0006236370012523E0032801D001251FE067
:1057FC000623637001251BE090F8351319B90723B4
:10580C004370012514E0FF2300F58E7200F036FC86
:10581C0018B90723637001250AE0032801D001257C
:10582C0006E007236370012502E090F8365315B9A2
:10583C00284604B070BDFF2300F58E72294600F097
:10584C001DFC05460028F3D0032803D00125EFE703
:10585C000125EDE70025EBE7D8B170B50E460446FF
:10586C0080F8CC230025C0F87C53C0F88053FFF798
:10587C0083FE84F8235384F8205384F8215384F84E
:10588C0022530EB1C4F8D463204603F04FFD002020
:10589C0070BD022070470A4651B1D0F880334BB925
:1058AC00591CC0F88013DE3340F8232000207047C9
:1058BC00022070470220704790F83C338B4203D98A
:1058CC0080F82413002070470220704770B40646FD
:1058DC0000200AE01A2404FB056595F849439C4214
:1058EC001AD0FF2B18D00130C0B2012813D80546AE
:1058FC001A2404FB006494F847438C4201D0FF291E
:10590C00F1D11A2404FB056494F848439442E1D085
:10591C00FF2AE8D1DEE7FF2070BC704710B50446C3
:10592C0003F092FD0121204603F04AFD002010BD3A
:10593C0030B587B0044602238DF8173090F8213328
:10594C00DBB2012B11D02378DBB20B2B7BD8DFE839
:10595C0013F00F00210045000A017A007D00E700DA
:10596C0092009C00A600B700010103230370EAE734
:10597C0094F82033002B66D001232370C82003F049
:10598C0055FD204603F070FD002384F81C33C4F849
:10599C00C83358E094F82333012B0FD0D4F8C83314
:1059AC00B3F57A7F13D994F81F330133DBB284F843
:1059BC001F33032B08D90D23237044E0002384F8F4
:1059CC001F33022323703EE0002323703BE00A3395
:1059DC00C4F8C8330A2003F029FD34E0D4F8D433DA
:1059EC0013B1042120469847642003F01FFD204684
:1059FC0003F0CAFC84F81D03052323700021204604
:105A0C0000F01EFC60718021204600F019FC01465C
:105A1C002071A37902930025019594F81D3300930E
:105A2C0094F81C338022204600F0F5FBA3790293F6
:105A3C00019594F81D33009394F81C332A46617930
:105A4C00204600F0E8FB002007B030BD2046FFF7F1
:105A5C00CCFD8DF817009DF81730002BF3D184F88E
:105A6C00243394F83733012B02D007232370EAE751
:105A7C0008232370E7E7D4F8D433002BE3D00121BB
:105A8C002046984708232370DDE794F83D13204601
:105A9C0000F01DFB0028D6D109232370D3E794F81E
:105AAC003F3313F0200F02D10A232370CBE70121DF
:105ABC00204600F01DFB0028C5D10A232370C2E745
:105ACC00D4F88033002BBED00023C4F87C3373B1E0
